{
  "_format": "hh-sol-artifact-1",
  "contractName": "Lottery",
  "sourceName": "contracts/Lottery.sol",
  "abi": [
    {
      "inputs": [],
      "stateMutability": "nonpayable",
      "type": "constructor"
    },
    {
      "inputs": [],
      "name": "enter",
      "outputs": [],
      "stateMutability": "payable",
      "type": "function"
    },
    {
      "inputs": [],
      "name": "getContractBalance",
      "outputs": [
        {
          "internalType": "uint256",
          "name": "",
          "type": "uint256"
        }
      ],
      "stateMutability": "view",
      "type": "function"
    },
    {
      "inputs": [],
      "name": "getPlayers",
      "outputs": [
        {
          "internalType": "address payable[]",
          "name": "",
          "type": "address[]"
        }
      ],
      "stateMutability": "view",
      "type": "function"
    },
    {
      "inputs": [],
      "name": "getRandomNumber",
      "outputs": [
        {
          "internalType": "uint256",
          "name": "",
          "type": "uint256"
        }
      ],
      "stateMutability": "view",
      "type": "function"
    },
    {
      "inputs": [],
      "name": "getWinner",
      "outputs": [
        {
          "internalType": "address",
          "name": "",
          "type": "address"
        },
        {
          "internalType": "uint256",
          "name": "",
          "type": "uint256"
        }
      ],
      "stateMutability": "view",
      "type": "function"
    },
    {
      "inputs": [],
      "name": "manager",
      "outputs": [
        {
          "internalType": "address",
          "name": "",
          "type": "address"
        }
      ],
      "stateMutability": "view",
      "type": "function"
    },
    {
      "inputs": [],
      "name": "pickWinner",
      "outputs": [],
      "stateMutability": "nonpayable",
      "type": "function"
    },
    {
      "inputs": [
        {
          "internalType": "uint256",
          "name": "",
          "type": "uint256"
        }
      ],
      "name": "players",
      "outputs": [
        {
          "internalType": "address payable",
          "name": "",
          "type": "address"
        }
      ],
      "stateMutability": "view",
      "type": "function"
    },
    {
      "inputs": [],
      "name": "resetLottery",
      "outputs": [],
      "stateMutability": "nonpayable",
      "type": "function"
    }
  ],
  "bytecode": "0x608060405234801561001057600080fd5b50600180546001600160a01b031916331790556105de806100326000396000f3fe6080604052600436106100965760003560e01c80638e7ea5b211610069578063dbdff2c11161004e578063dbdff2c114610177578063e97dcb621461018c578063f71d96cb1461019457600080fd5b80638e7ea5b21461012e578063d337616e1461016257600080fd5b8063481c6a751461009b5780635d495aea146100d85780636f9fb98a146100ef5780638b5b9ccc1461010c575b600080fd5b3480156100a757600080fd5b506001546100bb906001600160a01b031681565b6040516001600160a01b0390911681526020015b60405180910390f35b3480156100e457600080fd5b506100ed6101b4565b005b3480156100fb57600080fd5b50475b6040519081526020016100cf565b34801561011857600080fd5b50610121610249565b6040516100cf919061053b565b34801561013a57600080fd5b506101436102ab565b604080516001600160a01b0390931683526020830191909152016100cf565b34801561016e57600080fd5b506100ed61032a565b34801561018357600080fd5b506100fe610361565b6100ed610398565b3480156101a057600080fd5b506100bb6101af366004610523565b610467565b6001546001600160a01b031633146101cb57600080fd5b600080546101d7610361565b6101e19190610588565b90506000818154811061020457634e487b7160e01b600052603260045260246000fd5b60009182526020822001546040516001600160a01b03909116914780156108fc02929091818181858888f19350505050158015610245573d6000803e3d6000fd5b5050565b606060008054806020026020016040519081016040528092919081815260200182805480156102a157602002820191906000526020600020905b81546001600160a01b03168152600190910190602001808311610283575b5050505050905090565b6000806000600254815481106102d157634e487b7160e01b600052603260045260246000fd5b600091825260208220015460025482546001600160a01b039092169291811061030a57634e487b7160e01b600052603260045260246000fd5b60009182526020909120015490936001600160a01b039091163192509050565b6001546001600160a01b0316331461034157600080fd5b6040805160008082526020820192839052905161035e9290610491565b50565b6000805460408051426020820152016040516020818303038152906040528051906020012060001c6103939190610588565b905090565b670de0b6b3a764000034101561040e576040517f08c379a000000000000000000000000000000000000000000000000000000000815260206004820152601a60248201527f657468657265756d20616d6f756e74206e6f7420656e6f756768000000000000604482015260640160405180910390fd5b600080546001810182559080527f290decd9548b62a8d60345a988386fc84ba6bc95484008f6362f93160ef3e5630180547fffffffffffffffffffffffff00000000000000000000000000000000000000001633179055565b6000818154811061047757600080fd5b6000918252602090912001546001600160a01b0316905081565b8280548282559060005260206000209081019282156104fe579160200282015b828111156104fe57825182547fffffffffffffffffffffffff0000000000000000000000000000000000000000166001600160a01b039091161782556020909201916001909101906104b1565b5061050a92915061050e565b5090565b5b8082111561050a576000815560010161050f565b600060208284031215610534578081fd5b5035919050565b6020808252825182820181905260009190848201906040850190845b8181101561057c5783516001600160a01b031683529284019291840191600101610557565b50909695505050505050565b6000826105a357634e487b7160e01b81526012600452602481fd5b50069056fea264697066735822122045b6e6bfc9e67d558bd216660794575a4ffa8a955c466c054834483b9b34390564736f6c63430008040033",
  "linkReferences": {},
  "deployedLinkReferences": {}
}